:100000000C94B8010C94E9010C94E9010C94E901F9
:100010000C94E9010C94E9010C94E9010C94E901B8
:100020000C94E9010C94E9010C94E9010C94E901A8
:100030000C94E9010C94E9010C94E9010C94E90198
:100040000C94E9010C9493080C94E9010C94E901D7
:100050000C94E9010C94E9010C94E9010C945F07FC
:100060000C94E9010C94D3070C94A9070C94E901B2
:100070000C94E9010C94E9010C94E9010C94E90158
:100080000C9465080C94E9010C94E9010C94E901C5
:100090000C94E9010C94E9010C94E9010C94E90138
:1000A0000C94E9010C94E9010C9437080C94E901D3
:1000B0000C94E9010C94E9010C94E9010C940908F1
:1000C0000C94E9010C94E9010C94E9010C94E90108
:1000D0000C94E9010C94E9010C94E9010C94E901F8
:1000E0000C94E9010C94AD040C9499040C94100345
:1000F0000C9406030C9446030C9441030C942F03B8
:100100000C945D040C9414030C9418030C940C03CD
:100110000C948A040C94F3040C9447030C942B0362
:100120000C9456040C9421030C94BB040C945204BC
:100130000C9425030C9433030C943D030C941B0383
:100140000C9440050C94C1080C9439030C944B0397
:100150000C945A0400407A10F35A00A0724E180909
:100160000010A5D4E80000E87648170000E40B541E
:10017000020000CA9A3B000000E1F50500008096ED
:100180009800000040420F000000A086010000001F
:10019000102700000000E8030000000064000000D9
:1001A00000000A00000000000100000000002C76A2
:1001B000D888DC674F0823DFC1DFAE59E1B1B796BD
:1001C000E5E3E453C63AE651997696E8E6C284261A
:1001D000EB898C9B62ED407C6FFCEFBC9C9F40F2F6
:1001E000BAA56FA5F490055A2AF75C936B6CF96772
:1001F0006DC11BFCE0E40D47FEF520E6B500D0ED37
:10020000902E0300943577050080841E080000209E
:100210004E0A000000C80C333333330F986E12833C
:100220001141EF8D2114893BE65516CFFEE6DB1810
:10023000D1844B381BF77C1D901DA4BBE4242032D5
:1002400084725E228100C9F124ECA1E53D27000003
:100250002100240027002A002D0030003300010176
:100260000000040107010A01000022002500280007
:100270002B002E00310034000201000005010801AE
:100280000B01000020002300260029002C002F0075
:100290003200000100000301060109010505050502
:1002A000070508080808020202020A0A08080404EE
:1002B000040401010101010101010303030303031C
:1002C0000303040707070C0C0C0C0C0C0C0C0202AB
:1002D000020206060606060606060B0B0B0B0B0BA8
:1002E0000B0B010210202008081020401020408035
:1002F00002010201080402010102040810204080EA
:100300008040201008040201800402018040201077
:1003100008040201080402010102040810204080C0
:10032000010204081020408000000A0B02090C0D95
:100330000E08070304010000000000000000000098
:1003400000000000000000000000000000000000AD
:10035000000000001211100000000000000000006A
:100360000000000000000000000000000000C108C4
:1003700011241FBECFEFD1E2DEBFCDBF00E00CBF26
:1003800012E0A0E0B2E0EAEAF7E200E00BBF02C050
:1003900007900D92A039B107D9F724E0A0E9B2E0A7
:1003A00001C01D92A735B207E1F711E0C8EBD1E01B
:1003B00000E006C021970109802FFE010E94AE11C6
:1003C000C73BD10780E00807A9F70E9469090C9490
:1003D000D3130C9400008F929F92AF92BF92FF9222
:1003E0000F931F93CF93DF93853B910511F484EB1B
:1003F00090E0F090E1032FE22F1508F44CC020911B
:10040000E30308E512E0021B110927FD1395000F15
:10041000111F000F111F2091E203C8E8D0E0C21B9A
:10042000D10927FDD395CC0FDD1FCC0FDD1F4E0169
:100430000D2E000CAA08BB089801012E000C440BDD
:10044000550B281939094A095B09DC010E94F7108C
:1004500024EB30E040E050E00E94CD10820E931E6D
:10046000A41EB51E8C169D062CF0E8018016910680
:100470000CF4E4012297CC0FDD1F2FB7F8948F2DD9
:1004800090E0FC01EE0FFF1FE80FF91FE05BFC4F4F
:10049000D283C1832FBFDF91CF911F910F91FF9026
:1004A000BF90AF909F908F90089596E0899FD00164
:1004B0001124AC51BC4F90967C936E935F9791E062
:1004C00091969C939197E0915104F09152049091F0
:1004D0005004992339F0309751F0811108C0809170
:1004E00000041994309719F05C968C91FACF089516
:1004F000CF92DF92EF92FF920F931F9396E0899F26
:10050000F0011124EC51FC4F11A2278D30A12130B4
:10051000310551F178F02230310509F451C0233012
:10052000310509F452C01F910F91FF90EF90DF90B9
:10053000CF9008956623B9F361E070E00E94550200
:100540002FB7F8948091AF029091B002A091B102C0
:10055000B091B2022FBF80933C0490933D04A093CE
:100560003E04B0933F04DFCF9FB7F894C090AF0232
:10057000D090B002E090B102F090B2029FBF009123
:100580003C0410913D0420913E0430913F04C01A78
:10059000D10AE20AF30A00914E0410914F0430E0B0
:1005A00020E00C151D052E053F0550F462E070E0BB
:1005B0001F910F91FF90EF90DF90CF900C94550218
:1005C0006111B1CF63E070E0F3CF70E060E0F0CF95
:1005D0008150823108F05AC0E82FF0E08827EC50B3
:1005E000FD4F8F4F0C94AE111403180306030C0338
:1005F000100346031B03210325032B032F0333039F
:1006000039033D034603410347034B0380918000B8
:100610008F77809380000895809180008F7DF9CF3F
:1006200080918000877FF5CF84B58F7784BD089552
:1006300084B58F7DFBCF8091B0008F778093B00021
:1006400008958091B0008F7DF9CF809190008F77D1
:10065000809390000895809190008F7DF9CF8091D4
:100660009000877FF5CF8091A0008F778093A000C6
:1006700008958091A0008F7DF9CF8091A000877FA1
:10068000F5CF809120018F7780932001089580918C
:1006900020018F7DF9CF80912001877FF5CFCF9307
:1006A000DF93282F30E0F901E85DFC4F8491F901D8
:1006B000EE51FD4FD491F901E456FD4FC491CC2386
:1006C000A1F081110E94E802EC2FF0E0EE0FFF1F75
:1006D000EE57FD4FA591B491EC91ED2381E090E0B0
:1006E00009F480E0DF91CF91089580E090E0FACFA7
:1006F0001F93CF93DF93282F30E0F901E85DFC4F83
:100700008491F901EE51FD4FD491F901E456FD4F6A
:10071000C491CC23A9F0162F81110E94E802EC2F7E
:10072000F0E0EE0FFF1FE859FD4FA591B4918FB790
:10073000F894EC91111108C0D095DE23DC938FBFA3
:10074000DF91CF911F910895DE2BF8CFCF93DF93E8
:1007500090E0FC01EE51FD4F249184569D4FFC0129
:1007600084918823C9F090E0880F991FFC01E25B17
:10077000FD4FA591B491FC01E859FD4FC591D4916D
:1007800061110DC09FB7F8948C91209582238C93B2
:100790008881282328839FBFDF91CF9108956230FD
:1007A00051F49FB7F8943C91822F809583238C93CA
:1007B000E8812E2BEFCF8FB7F894EC912E2B2C9352
:1007C0008FBFEACF90917B00977F90937B008064EE
:1007D00080937C0080917A00806480937A0080917D
:1007E0007A0086FDFCCF8091780090917900089581
:1007F0003FB7F8948091AB029091AC02A091AD020A
:10080000B091AE0226B5A89B05C02F3F19F0019606
:10081000A11DB11D3FBFBA2FA92F982F8827BC015A
:10082000CD01620F711D811D911D42E0660F771F82
:10083000881F991F4A95D1F708958F929F92AF9282
:10084000BF92CF92DF92EF92FF920E94F8034B018A
:100850005C018AE0C82ED12CE12CF12C0E94F80317
:10086000681979098A099B09683E734081059105D9
:10087000A8F321E0C21AD108E108F10888EE880E39
:1008800083E0981EA11CB11CC114D104E104F10441
:1008900029F7FF90EF90DF90CF90BF90AF909F909F
:1008A0008F900895862F642F0C94A603862F642FB3
:1008B0000C947803862F0C944F03AF92BF92CF9283
:1008C000DF92EF92FF920F931F93CF93DF936C0110
:1008D0007B018B01040F151FEB015E01AE18BF08F1
:1008E000C017D10759F06991D601ED91FC910190A3
:1008F000F081E02DC6011995892B79F7C501DF91AB
:10090000CF911F910F91FF90EF90DF90CF90BF900C
:10091000AF900895FC01538D448D252F30E0842F36
:1009200090E0821B930B541710F0CF960895019717
:100930000895FC01918D828D981761F0A28DAE0F04
:10094000BF2FB11D5D968C91928D9F5F9F73928F8B
:1009500090E008958FEF9FEF0895FC01918D828DB7
:10096000981731F0828DE80FF11D858D90E0089584
:100970008FEF9FEF0895FC01918D228D892F90E0DC
:10098000805C9F4F821B91098F739927089583EB99
:1009900092E00E94BB0421E0892B09F420E0822F21
:1009A0000895FC01A48DA80FB92FB11DA35ABF4F04
:1009B0002C91848D90E001968F739927848FA6895E
:1009C000B7892C93A089B1898C91837080648C93B2
:1009D000938D848D981306C00288F389E02D808161
:1009E0008F7D80830895EF92FF920F931F93CF9393
:1009F000DF93EC0181E0888F9B8D8C8D98131AC05A
:100A0000E889F989808185FF15C09FB7F894EE8940
:100A1000FF896083E889F98980818370806480839D
:100A20009FBF81E090E0DF91CF911F910F91FF90E8
:100A3000EF900895F62E0B8D10E00F5F1F4F0F7390
:100A40001127E02E8C8D8E110CC00FB607FCFACF4B
:100A5000E889F989808185FFF5CFCE010E94D10414
:100A6000F1CFEB8DEC0FFD2FF11DE35AFF4FF0821C
:100A70009FB7F8940B8FEA89FB8980818062CFCF82
:100A8000CF93DF93EC01888D8823B9F0AA89BB89C5
:100A9000E889F9898C9185FD03C0808186FD0DC0B0
:100AA0000FB607FCF7CF8C9185FFF2CF808185FFD1
:100AB000EDCFCE010E94D104E9CFDF91CF9108950F
:100AC00080E090E0892B29F00E94C70481110E94E8
:100AD000000080E090E0892B49F080E090E0892BD5
:100AE00029F00E94000081110E94000080E090E047
:100AF000892B49F080E090E0892B29F00E940000CA
:100B000081110E94000080E090E0892B49F080E094
:100B100090E0892B29F00E94000081110C940000C4
:100B20000895AF92BF92CF92DF92EF92FF920F9310
:100B30001F93CF93DF936B017A01EC01C057DD4F18
:100B400028813CE0389F8001399F100D1124A0902E
:100B5000E003B12C27FF1FC0FB01118210828881A6
:100B60008F5F888388819801280F311D87FD3A9512
:100B7000F6012A153B051CF488818C30C4F1808174
:100B80009181049680349C4908F473C0F6018081F9
:100B90009181049670C088819801280F311D87FDCE
:100BA0003A952A153B05DCF68881A801480F511DAE
:100BB00087FD5A95FA01EE0FFF1FE40FF51FE05B6A
:100BC000FC4F808186FFCBCF8881F801E80FF11DB3
:100BD00087FDFA95CF01EE0FFF1FE80FF91FE05BCD
:100BE000FC4F808160E08F730E947803B8CF8081D2
:100BF00091812881A801420F511D27FD5A959A0124
:100C0000FA01EE0FFF1FE20FF31FE05BFC4F2181A3
:100C10003281820F931FF70191838083888198012D
:100C2000280F311D87FD3A95F901EE0FFF1FE20FE6
:100C3000F31FE05BFC4F808186FF22C08881080F94
:100C4000111D87FD1A95F801EE0FFF1FE00FF11F30
:100C5000E05BFC4F808161E08F73DF91CF911F914A
:100C60000F91FF90EF90DF90CF90BF90AF900C94DA
:100C7000780380E49CE9F701918380838FEF888378
:100C8000DF91CF911F910F91FF90EF90DF90CF9068
:100C9000BF90AF90089542E050E065E372E083EBCF
:100CA00092E00C945D04CF93DF93FC01019000204F
:100CB000E9F73197AF01481B590BBC0183EB92E078
:100CC0000E945D04EC010E944B068C0F9D1FDF917A
:100CD000CF910895CF93DF93FC01448155816081CA
:100CE000718183EB92E00E945D04EC010E944B064F
:100CF0008C0F9D1FDF91CF9108950F931F93CF937A
:100D0000DF93EC0188819981009759F02A813B811A
:100D10002617370730F081E0DF91CF911F910F91B7
:100D200008958B016F5F7F4F0E94E212009759F088
:100D3000998388831B830A832C813D81232B59F758
:100D4000FC011082E8CF80E0E7CFCF93DF93EC0186
:100D500088819981009711F00E9459121982188296
:100D60001D821C821B821A82DF91CF910895CF933E
:100D7000DF93EC01198218821B821A821D821C8269
:100D800067E070E00E947D06811105C0CE01DF9111
:100D9000CF910C94A50687E090E09D838C8368E357
:100DA00072E088819981DF91CF910C94CC13CF921E
:100DB000DF92EF92FF920F931F93CF93DF93CDB704
:100DC000DEB7A1970FB6F894DEBF0FBECDBF7C0192
:100DD000CB01BA01F70111821082138212821582AF
:100DE00014828E010F5F1F4F22E044E00E943A0DF3
:100DF0006C01009771F0FC0101900020E9F7319738
:100E00008F01081B190BB801C7010E947D068111D3
:100E100012C0C7010E94A506A1960FB6F894DEBFC6
:100E20000FBECDBFDF91CF911F910F91FF90EF903B
:100E3000DF90CF900895F70115830483B601808178
:100E400091810E94CC13E8CFEF92FF920F931F93F2
:100E5000CF93DF93EC01FB01E080F180E114F1041A
:100E600011F10481158101151105A9F08C819D8175
:100E7000080F191FB801CE010E947D06882399F042
:100E8000288139818C819D81B701820F931F0E9437
:100E9000CC131D830C83CE01DF91CF911F910F9155
:100EA000FF90EF900895CE010E94A506F4CFFC01BB
:100EB00080819181009711F00C94591208951F922E
:100EC0000F920FB60F9211242F933F938F939F93FE
:100ED000AF93BF938091AF029091B002A091B10205
:100EE000B091B2023091AA0223E0230F2D3758F5BA
:100EF0000196A11DB11D2093AA028093AF02909389
:100F0000B002A093B102B093B2028091AB02909173
:100F1000AC02A091AD02B091AE020196A11DB11D2F
:100F20008093AB029093AC02A093AD02B093AE025B
:100F3000BF91AF919F918F913F912F910F900FBED5
:100F40000F901F90189526E8230F0296A11DB11D42
:100F5000D2CF1F920F920FB60F9211240BB60F92A1
:100F60002F933F934F935F936F937F938F939F93B1
:100F7000AF93BF93EF93FF9383EB92E00E94D10472
:100F8000FF91EF91BF91AF919F918F917F916F9161
:100F90005F914F913F912F910F900BBE0F900FBE1D
:100FA0000F901F9018951F920F920FB60F92112459
:100FB0000BB60F922F938F939F93EF93FF93E09134
:100FC000C302F091C4028081E091C902F091CA028B
:100FD00082FD1DC090818091CC028F5F8F73209124
:100FE000CD02821741F0E091CC02F0E0ED54FD4FCC
:100FF000958F8093CC02FF91EF919F918F912F91CC
:101000000F900BBE0F900FBE0F901F901895808110
:10101000F2CF1F920F920FB60F9211240BB60F92C0
:101020002F933F934F935F936F937F938F939F93F0
:10103000AF93BF93EF93FF9348E251E064E271E016
:1010400090E080E00E949105FF91EF91BF91AF91F8
:101050009F918F917F916F915F914F913F912F91D0
:101060000F900BBE0F900FBE0F901F9018951F9200
:101070000F920FB60F9211240BB60F922F933F933E
:101080004F935F936F937F938F939F93AF93BF9390
:10109000EF93FF9348EA50E064EA70E083E090E069
:1010A0000E949105FF91EF91BF91AF919F918F9118
:1010B0007F916F915F914F913F912F910F900BBE58
:1010C0000F900FBE0F901F9018951F920F920FB6A2
:1010D0000F9211240BB60F922F933F934F935F9370
:1010E0006F937F938F939F93AF93BF93EF93FF93F0
:1010F00048E950E064E970E082E090E00E949105E8
:10110000FF91EF91BF91AF919F918F917F916F91DF
:101110005F914F913F912F910F900BBE0F900FBE9B
:101120000F901F9018951F920F920FB60F921124D7
:101130000BB60F922F933F934F935F936F937F93D1
:101140008F939F93AF93BF93EF93FF9348E850E043
:1011500064E870E081E090E00E949105FF91EF91DA
:10116000BF91AF919F918F917F916F915F914F91BF
:101170003F912F910F900BBE0F900FBE0F901F90BD
:1011800018951092B6021092B50288EE93E0A0E096
:10119000B0E08093B7029093B802A093B902B093E5
:1011A000BA028DE192E09093B4028093B30285EC91
:1011B00090E09093C0028093BF0284EC90E0909303
:1011C000C2028093C10280EC90E09093C4028093AD
:1011D000C30281EC90E09093C6028093C50282EC3A
:1011E00090E09093C8028093C70286EC90E09093C1
:1011F000CA028093C9021092CC021092CD021092C2
:10120000CE021092CF021092E6031092EA031092DF
:10121000E9031092EB038FE292E09093E503809351
:10122000E403E0E0F4E01082148213821582369623
:1012300084E0EC33F807B9F783E092E09093470439
:101240008093460480E092E09093490480934804A0
:1012500084E080934A0483E080934B0487E092E02B
:1012600090934504809344048AE090E090934D0469
:1012700080934C0484EF91E090934F0480934E044C
:1012800010925204109251041092400410924104A2
:101290001092420410924304109250048091E00393
:1012A000803398F491E0980F9093E0038093E103EA
:1012B00090E0FC01EE0FFF1FE80FF91FE05BFC4F11
:1012C00088EB9BE09283818308958FEF8093E10305
:1012D0000895CF93DF93CDB7DEB764970FB6F89438
:1012E000DEBF0FBECDBF789484B5826084BD84B567
:1012F000816084BD85B5826085BD85B5816085BD11
:1013000080916E00816080936E00109281008091C8
:101310008100826080938100809181008160809350
:101320008100809180008160809380008091B10075
:1013300084608093B1008091B00081608093B000A0
:1013400080919100826080939100809191008160F2
:1013500080939100809190008160809390008091B3
:10136000A10082608093A1008091A10081608093A0
:10137000A1008091A00081608093A0008091210154
:1013800082608093210180912101816080932101FD
:101390008091200181608093200180917A00846097
:1013A00080937A0080917A00826080937A008091A5
:1013B0007A00816080937A0080917A0080688093BF
:1013C0007A001092C10060E080E00E94A60360E015
:1013D00081E00E94A60360E082E00E94A60360E034
:1013E00083E00E94A6038091E103803308F052C09D
:1013F00061E08DE00E94A6038091E103282F30E098
:10140000F901EE0FFF1FE20FF31FE05BFC4F90812D
:10141000907C9D6090831092E2031092E3032CE095
:10142000622F0E94A211829FB001112430E020E0BF
:10143000AB01420F531FFA01EE0FFF1FE40FF51F20
:10144000E05BFC4F908196FD17C02F5F3F4F2C3023
:10145000310571F7813009F026C11092800082E0D9
:10146000809381001092850010928400B19A80913F
:101470006F00826080936F00E091E1038E2F90E017
:10148000FC01EE0FFF1FE80FF91FE05BFC4F8081AE
:1014900080648083109295021092940290E080E024
:1014A0000E94EB01E091C302F091C40282E08083CC
:1014B000E091BF02F091C0021082E091C102F09170
:1014C000C2028FEC80831092CB02E091C702F091B0
:1014D000C80286E08083E091C502F091C602808157
:1014E00080618083E091C502F091C60280818860AE
:1014F0008083E091C502F091C6028081806880837C
:10150000E091C502F091C60280818F7D80834424E2
:101510004A9433E0532E612C712C22242A94322CCD
:1015200080E00E94E20324E630E0DC010E94B61174
:10153000A30192010E94CD10CA01B9010E94B00F0F
:101540006D877E878F87988B6093A6027093A70222
:101550008093A8029093A90281E00E94E20324E60E
:1015600030E0DC010E94B611A30192010E94CD106F
:10157000CA01B9010E94B00F698B7A8B8B8B9C8B4F
:101580006093A2027093A3028093A4029093A50299
:1015900082E00E94E20324E630E0DC010E94B61102
:1015A000A30192010E94CD10CA01B9010E94B00F9F
:1015B0004B015C0180929E0290929F02A092A00239
:1015C000B092A10283E00E94E20324E630E0DC0155
:1015D0000E94B611A30192010E94CD10CA01B90167
:1015E0000E94B00F6B017C01C0929A02D0929B02C4
:1015F000E0929C02F0929D0229893A894B895C898C
:101600006D857E858F8598890E943111A501940191
:101610000E943111A70196010E94311120E030E0B3
:1016200040E85EE30E940F10609396027093970269
:10163000809398029093990281E0809350048FB731
:10164000F8944091AF025091B0026091B102709154
:10165000B2028FBF8091400490914104A091420456
:10166000B0914304481B590B6A0B7B0B80914C04CF
:1016700090914D04B0E0A0E084179507A607B70746
:1016800008F078C110E080914A041817C0F5E09185
:101690004604F0914704E10FF11D62E080810E9451
:1016A000A6031F5FF0CF823061F410929000809308
:1016B0009100109295001092940088BB8093710065
:1016C000DBCE833069F41092A00082E08093A10009
:1016D0001092A5001092A40089BB80937200CCCE1A
:1016E0008111CACE1092200182E0809321011092D4
:1016F0002501109224018ABB80937300BDCE912CEA
:1017000080914B04981608F063C0E92CF12CE0910D
:101710004804F0914904EE0DFF1D61E080810E94B4
:10172000A603E0914804F0914904EE0DFF1D60E02E
:1017300080810E94780381E090E0A0E0B0E0092C75
:1017400004C0880F991FAA1FBB1F0A94D2F75C011F
:101750006C01C094D094812C80914A04881608F5BD
:10176000082D10E0E0914604F0914704E00FF11FCE
:1017700080810E944F030C5F1F4F000F111FF80163
:10178000EC51FC4F892B41F4808191818A299B295E
:10179000918380838394E0CF808191818C219D21EE
:1017A000F7CFE0914804F0914904EE0DFF1D61E090
:1017B00080810E9478038091480490914904E80E4A
:1017C000F91E60E0D7018C910E94A603939498CFF4
:1017D00094EEE92E93E0F92E6701F601878D90A132
:1017E000892B21F4148E368E258E11A2F6E0CF0EB1
:1017F000D11C50E2C51654E0D50679F7B12C809182
:101800004A04B81608F051C0A12C0B2D10E0000FAF
:10181000111F04511C4F20914B04A21608F043C025
:10182000D8016D917C910A2C02C0769567950A9437
:10183000E2F7B29E900111242A0D311DE4EEF3E08F
:1018400080E0458D568D2417350709F411C18F5F4F
:1018500036968A30B1F760FF24C0E4EEF3E090E002
:1018600080E0448D411118C0E0914404F09145049A
:10187000E20FF31F4081B6E0B89FF001B99FF00D71
:101880001124EC51FC4F448F368F258F10A2178EF8
:1018900061E00E94780205C0019636968A30910573
:1018A00001F7A394B8CFB394AACF80E0F70191A138
:1018B0009111892FF6E0EF0EF11CCE14DF04B1F781
:1018C0009FB7F8944091AF025091B0026091B1027D
:1018D0007091B2029FBF40934004509341046093C3
:1018E000420470934304882309F444C080910504A2
:1018F000882309F43FC08091030490910404019768
:10190000C9F580910004811138C0C0909602D09032
:101910009702E0909802F090990220E030E040E7D2
:1019200052E4C701B6010E949D1187FD80C000915D
:101930009402109195020115110509F078C081E01B
:1019400090E09093950280939402C8010E94EB016D
:101950000E941D040F5F1F4F053B1105B1F720E0EA
:1019600030E040E752E4C701B6010E94A90F87FDAD
:101970006EC07BC010925004C8CF813331F580E433
:1019800092E00E9453064091A6025091A7026091F6
:10199000A8027091A902CE0101960E94D706CE013D
:1019A00007960E94B706BE016F5F7F4FCE01079674
:1019B0000E9424070E946A06CE0107960E945707DC
:1019C000CE0101960E945707A0CF823369F48FE4BD
:1019D00092E00E9453064091A2025091A3026091AE
:1019E000A4027091A502D7CF833369F48EE592E00B
:1019F0000E94530640919E0250919F026091A00266
:101A00007091A102C8CF843369F48DE692E00E9400
:101A1000530640919A0250919B0260919C027091F2
:101A20009D02B9CF8CE792E00E9453066ECF20E072
:101A300030E040E752E4C701B6010E94A90F87FFDA
:101A400014C08091940290919502019771F41092C4
:101A500095021092940203EB10E0C8010E94EB0182
:101A60000E941D0401501109C1F70E94600558CD64
:101A700061700FCFEF920F931F93CF93DF93E80125
:101A800034E047FD34E1042E000C550B57FF03C032
:101A9000519541955109E32E022F242FAE010E944A
:101AA000580DCE01DF91CF911F910F91EF900895C6
:101AB0008F929F92AF92BF92CF92DF92EF92FF925E
:101AC0000F931F93CF93DF9300D000D000D0CDB7FA
:101AD000DEB76A01F22EB02E102FFBE3AF2EA01658
:101AE00008F41BE31F5F012F27E0AE014F5F5F4F3C
:101AF0000E94D10EBC018981982F9970913009F410
:101B00004EC09BE2E1FC04C09E2D9170E0FC49C0F8
:101B10005E2D5071E82FE87083FF55C084E091116D
:101B200001C083E0EF2DE81B8F1508F0E0E0D6013F
:101B30008E2F20E25523C9F1992329F0D6019C93D9
:101B4000C60101966C0196012D5F3F4FE2FE33C046
:101B50008EE4D6018C9391E411969C931197129682
:101B60008C93D9018E2F90E281112AC0E20FF32FBE
:101B7000F11D10828EEF9FEF29960FB6F894DEBF0D
:101B80000FBECDBFDF91CF911F910F91FF90EF90CE
:101B9000DF90CF90BF90AF909F908F9008959DE27F
:101BA000B7CF90E2B5CF2D9381508111FCCFCE0EEF
:101BB000D11CE0E0C1CF8EE6D6018C9391E6CCCF6C
:101BC0009D938150D1CF482F447082FF3DC084E067
:101BD000911101C083E08F1510F4EF2DE81BD601A1
:101BE0008E2F20E2552309F1992329F0D6019C93E9
:101BF000C60101966C0196012D5F3F4FE2FE1BC0AE
:101C000089E4D6018C938EE411968C93119786E427
:101C100012968C93D9018E2F90E2882309F4A6CFD7
:101C20009D938150FACF2D9381508111FCCFCE0E20
:101C3000D11CE0E0D9CF89E6D6018C938EE61196CF
:101C40008C93119786E6E4CF9B0177FF02C030E0CA
:101C500020E0A1E0B0E0911102C0B0E0A0E0F90105
:101C60003196AE0FBF1F8B2C912CBB2009F461C0A5
:101C70005401EFEFAE1ABE0AAA0DBB1DFA161B06E1
:101C800019F014F04F2D4A1B511188C0E3FC59C0C4
:101C90007601A42FB0E2A1114FC0C40ED11C99232C
:101CA00009F45BC040E0D6011196F60190836D0106
:101CB000552309F448C0012F060F9A81582F5071FF
:101CC00084FF03C0913309F4015010160CF047C093
:101CD000093008F008E0EEE2FE2E5B01A01AB10820
:101CE00085019194819491082F3F320729F4D60100
:101CF000FC92F60131966F016217730794F1021797
:101D000013077CF5DB01A21BB30BAA24A394B12C0F
:101D1000AC0EBD1EAA0DBB1D11968C912150310930
:101D2000D601119628153905F4F0F60180836D016E
:101D3000DBCFB12CA12CA0CFF701B1937F01A15033
:101D4000AACF9111B0CFD601942F50E302C05D937A
:101D500091509111FCCFC40ED11C40E0ACCF01E0FA
:101D6000BACF80E3DBCF6217730731F4963388F480
:101D7000953311F4552369F0F6018083FD01842F1A
:101D800090E2811108C0A40FB11D1C9290E080E088
:101D9000F3CE81E3F1CF91938150F3CF911183CFB3
:101DA0008ACF283008F027E03327DA01990F311D58
:101DB00087FD916000966105710539F432602E5FF0
:101DC0003D9330E32A95E1F708959F3F30F0803846
:101DD0007105610509F03C5F3C5F3D93913008F06F
:101DE0008068911DDF93CF931F930F93FF92EF9223
:101DF000192F987F9695E92F96959695E90FFF27CD
:101E0000E255FE4F99273327EE24FF24A701E7016F
:101E100005900894079428F4360FE71EF81E491F12
:101E2000511D660F771F881F991F0694A1F7059013
:101E3000079428F4E70EF81E491F561FC11D770F9F
:101E4000881F991F661F0694A1F70590079428F430
:101E5000F80E491F561FC71FD11D880F991F661FF7
:101E6000771F0694A1F70590079420F4490F561F99
:101E7000C71FD81F990F661F771F881F0694A9F7E1
:101E800084911095177041F0D695C7955795479551
:101E9000F794E7941A95C1F7E4E5F1E0689415909A
:101EA000159135916591959105907FE27395E118B3
:101EB000F10A430B560BC90BD009C0F7E10CF11E18
:101EC000431F561FC91FD01D7EF4703311F48A952D
:101ED000E6CFE894015030F0080F0AF4002702170B
:101EE00008F4202F2395022F7A3328F079E37D938D
:101EF0002A95E9F710C07D932A9589F6069497955F
:101F00006795379517951794E118F10A430B560B0F
:101F1000C90BD00998F023957E9173957A3308F018
:101F200070E37C932013B8F77E9170617D9330F05D
:101F3000839571E37D9370E32A95E1F71124EF9087
:101F4000FF900F911F91CF91DF91992787FD909579
:101F500008950E94EB0F08F481E00895E89409C009
:101F600097FB3EF490958095709561957F4F8F4FCC
:101F70009F4F9923A9F0F92F96E9BB279395F695E2
:101F8000879577956795B795F111F8CFFAF4BB0F60
:101F900011F460FF1BC06F5F7F4F8F4F9F4F16C0C4
:101FA000882311F096E911C0772321F09EE8872F4E
:101FB000762F05C0662371F096E8862F70E060E00A
:101FC0002AF09A95660F771F881FDAF7880F969583
:101FD000879597F90895990F0008550FAA0BE0E827
:101FE000FEEF16161706E807F907C0F012161306DB
:101FF000E407F50798F0621B730B840B950B39F41B
:102000000A2661F0232B242B252B21F408950A2680
:1020100009F4A140A6958FEF811D811D08950E94AE
:1020200022100C9493100E94851038F00E948C109E
:1020300020F0952311F00C947C100C948210112444
:102040000C94C7100E94A41070F3959FC1F3950FD4
:1020500050E0551F629FF001729FBB27F00DB11D2C
:10206000639FAA27F00DB11DAA1F649F6627B00DBC
:10207000A11D661F829F2227B00DA11D621F739FA5
:10208000B00DA11D621F839FA00D611D221F749FB3
:102090003327A00D611D231F849F600D211D822FFA
:1020A000762F6A2F11249F5750409AF0F1F0882321
:1020B0004AF0EE0FFF1FBB1F661F771F881F91504E
:1020C0005040A9F79E3F510580F00C947C100C9471
:1020D000C7105F3FE4F3983ED4F3869577956795F4
:1020E000B795F795E7959F5FC1F7FE2B880F911D78
:1020F0009695879597F9089597F99F6780E870E01E
:1021000060E008959FEF80EC089500240A9416166D
:10211000170618060906089500240A9412161306D5
:10212000140605060895092E0394000C11F4882363
:1021300052F0BB0F40F4BF2B11F460FF04C06F5F7F
:102140007F4F8F4F9F4F089557FD9058440F551F55
:1021500059F05F3F71F04795880F97FB991F61F029
:102160009F3F79F087950895121613061406551FA0
:10217000F2CF4695F1DF08C0161617061806991F0C
:10218000F1CF86957105610508940895E894BB2701
:1021900066277727CB0197F90895052E97FB1EF444
:1021A00000940E94E41057FD07D00E94FF1007FC26
:1021B00003D04EF40C94E410509540953095219541
:1021C0003F4F4F4F5F4F0895909580957095619563
:1021D0007F4F8F4F9F4F08950E942111A59F900D13
:1021E000B49F900DA49F800D911D11240895B7FFF9
:1021F0000C94EC100E94EC10821B930B0895A1E24A
:102200001A2EAA1BBB1BFD010DC0AA1FBB1FEE1F70
:10221000FF1FA217B307E407F50720F0A21BB30BBB
:10222000E40BF50B661F771F881F991F1A9469F737
:1022300060957095809590959B01AC01BD01CF0193
:102240000895A29FB001B39FC001A39F700D811D8F
:102250001124911DB29F700D811D1124911D0895AF
:102260005058BB27AA270E9448110C9493100E9433
:10227000851038F00E948C1020F039F49F3F19F43B
:1022800026F40C9482100EF4E095E7FB0C947C107D
:10229000E92F0E94A41058F3BA1762077307840746
:1022A000950720F079F4A6F50C94C6100EF4E0958D
:1022B0000B2EBA2FA02D0B01B90190010C01CA0100
:1022C000A0011124FF27591B99F0593F50F4503EAB
:1022D00068F11A16F040A22F232F342F4427585F9D
:1022E000F3CF469537952795A795F0405395C9F7B5
:1022F0007EF41F16BA0B620B730B840BBAF091506D
:10230000A1F0FF0FBB1F661F771F881FC2F70EC00B
:10231000BA0F621F731F841F48F4879577956795DE
:10232000B795F7959E3F08F0B0CF9395880F08F0CA
:102330009927EE0F9795879508950E94EB0F08F463
:102340008FEF0895991B79E004C0991F961708F044
:10235000961B881F7A95C9F780950895EE0FFF1F89
:10236000881F8BBF0790F691E02D19940E942111D0
:10237000B7FF0895821B930B08950F931F93CF937C
:10238000DF938230910510F482E090E0E0915504F3
:10239000F091560430E020E0B0E0A0E0309799F4EE
:1023A0002115310509F44AC0281B390B24303105A9
:1023B000D8F58A819B816115710589F1FB019383B1
:1023C0008283FE0111C0408151810281138148172F
:1023D0005907E0F04817590799F4109761F01296E1
:1023E0000C93129713961C933296CF01DF91CF91E5
:1023F0001F910F9108950093550410935604F4CF44
:102400002115310551F04217530738F0A901DB01BE
:102410009A01BD01DF01F801C1CFEF01F9CF90931F
:10242000560480935504CDCFFE01E20FF31F819334
:1024300091932250310939832883D7CF20915304B7
:1024400030915404232B41F420911502309116024F
:1024500030935404209353042091130230911402BA
:102460002115310541F42DB73EB740911702509127
:102470001802241B350BE0915304F0915404E21729
:10248000F307A0F42E1B3F0B2817390778F0AC0197
:102490004E5F5F4F2417350748F04E0F5F1F509374
:1024A000540440935304819391939FCFF0E0E0E074
:1024B0009CCFCF93DF930097E9F0FC013297138212
:1024C0001282A0915504B0915604ED0130E020E055
:1024D0001097A1F420813181820F931F2091530422
:1024E000309154042817390709F061C0F09354045F
:1024F000E0935304DF91CF910895EA01CE17DF07EF
:10250000E8F54A815B819E0141155105B1F7E9016A
:10251000FB83EA8349915991C40FD51FEC17FD073E
:1025200061F4808191810296840F951FE90199835E
:102530008883828193819B838A83F0E0E0E0129616
:102540008D919C9113970097B9F52D913C9111971E
:10255000CD010296820F931F2091530430915404B1
:102560002817390739F6309751F510925604109212
:102570005504B0935404A0935304BCCFD383C283B7
:1025800040815181840F951FC817D90761F44E5FB0
:102590005F4F88819981480F591F518340838A81F9
:1025A0009B81938382832115310509F0B0CFF0938D
:1025B0005604E09355049ECFFD01DC01C0CF138289
:1025C0001282D7CF4F925F926F927F928F929F929B
:1025D000AF92BF92CF92DF92EF92FF920F931F9331
:1025E000CF93DF938C01009799F4CB01DF91CF91CA
:1025F0001F910F91FF90EF90DF90CF90BF90AF9021
:102600009F908F907F906F905F904F900C94BD1132
:10261000FC01E60FF71F9C0122503109E217F30776
:1026200008F4AEC0D901CD91DC911197C617D70738
:1026300020F1C530D10578F0CE01049786179707B1
:1026400050F0C61BD70B2297C193D1936D937C9307
:10265000CF010E945912C801DF91CF911F910F91B4
:10266000FF90EF90DF90CF90BF90AF909F908F90B2
:102670007F906F905F904F9008955B01AC1ABD0AF8
:102680004C018C0E9D1EA0915504B0915604512C06
:10269000412CF12CE12C109731F58091530490914D
:1026A00054048815990509F05CC04616570608F0D1
:1026B00058C08091130290911402009741F48DB795
:1026C0009EB74091170250911802841B950BE81792
:1026D000F90708F055C0F0935404E0935304F9014E
:1026E00071836083B8CF8D919C91119712966C90F5
:1026F000129713967C901397A815B90559F56C019C
:1027000042E0C40ED11CCA14DB0420F1AC014A190A
:102710005B09DA011296159780F062827382518309
:102720004083D9016D937C93E114F10471F0D701DA
:102730001396FC93EE9312978ECF22968C0F9D1FCB
:10274000F90191838083F301EFCFF0935604E09376
:10275000550481CF4816590608F42C017D01D30198
:102760009ACFCB010E94BD117C01009749F0AE01C8
:10277000B8010E94C313C8010E94591287016BCF90
:1027800010E000E068CFFB01DC0102C001900D9277
:1027900041505040D8F70895FB01DC0101900D92A3
:0A27A0000020E1F70895F894FFCF40
:1027AA000504030908070631323334353637383918
:1027BA002A302300005704800000000000F3045D63
:1027CA00048A044005BB049904AD040000000052C9
:1027DA000456045A040D0A0056616C6F723A2000BE
:1027EA004C445220656C656769646F3A2031004C2D
:1027FA00445220656C656769646F3A2032004C4424
:10280A005220656C656769646F3A2033004C445204
:10281A0020656C656769646F3A203400436F6D61A7
:10282A006E646F206E6F2076C3A16C69646F0000BE
:00000001FF
